{
  "_format": "hh-sol-artifact-1",
  "contractName": "Market",
  "sourceName": "contracts/Market.sol",
  "abi": [
    {
      "inputs": [
        {
          "internalType": "contract IERC20",
          "name": "_ft",
          "type": "address"
        },
        {
          "internalType": "contract INFT",
          "name": "_nft",
          "type": "address"
        },
        {
          "internalType": "contract ITreasury",
          "name": "_treasury",
          "type": "address"
        }
      ],
      "stateMutability": "nonpayable",
      "type": "constructor"
    },
    {
      "anonymous": false,
      "inputs": [
        {
          "indexed": false,
          "internalType": "uint256",
          "name": "tokenId",
          "type": "uint256"
        }
      ],
      "name": "Issue",
      "type": "event"
    },
    {
      "anonymous": false,
      "inputs": [
        {
          "indexed": true,
          "internalType": "address",
          "name": "previousOwner",
          "type": "address"
        },
        {
          "indexed": true,
          "internalType": "address",
          "name": "newOwner",
          "type": "address"
        }
      ],
      "name": "OwnershipTransferred",
      "type": "event"
    },
    {
      "anonymous": false,
      "inputs": [
        {
          "indexed": true,
          "internalType": "address",
          "name": "from",
          "type": "address"
        },
        {
          "indexed": true,
          "internalType": "address",
          "name": "to",
          "type": "address"
        },
        {
          "indexed": false,
          "internalType": "uint256",
          "name": "amount",
          "type": "uint256"
        }
      ],
      "name": "Star",
      "type": "event"
    },
    {
      "stateMutability": "payable",
      "type": "fallback"
    },
    {
      "inputs": [
        {
          "internalType": "address",
          "name": "",
          "type": "address"
        },
        {
          "internalType": "uint256",
          "name": "",
          "type": "uint256"
        }
      ],
      "name": "consumerToSentStars",
      "outputs": [
        {
          "internalType": "bool",
          "name": "",
          "type": "bool"
        }
      ],
      "stateMutability": "view",
      "type": "function"
    },
    {
      "inputs": [
        {
          "internalType": "uint256",
          "name": "_tokenId",
          "type": "uint256"
        }
      ],
      "name": "delistArticle",
      "outputs": [],
      "stateMutability": "nonpayable",
      "type": "function"
    },
    {
      "inputs": [],
      "name": "ft",
      "outputs": [
        {
          "internalType": "contract IERC20",
          "name": "",
          "type": "address"
        }
      ],
      "stateMutability": "view",
      "type": "function"
    },
    {
      "inputs": [
        {
          "internalType": "uint256",
          "name": "tokenId",
          "type": "uint256"
        }
      ],
      "name": "getArticle",
      "outputs": [
        {
          "components": [
            {
              "internalType": "enum TokenTypes",
              "name": "method",
              "type": "uint8"
            },
            {
              "internalType": "uint256",
              "name": "price",
              "type": "uint256"
            },
            {
              "internalType": "string",
              "name": "cid",
              "type": "string"
            },
            {
              "internalType": "address payable",
              "name": "author",
              "type": "address"
            }
          ],
          "internalType": "struct IMarket.Article",
          "name": "",
          "type": "tuple"
        }
      ],
      "stateMutability": "view",
      "type": "function"
    },
    {
      "inputs": [],
      "name": "issueTokenId",
      "outputs": [],
      "stateMutability": "nonpayable",
      "type": "function"
    },
    {
      "inputs": [
        {
          "internalType": "enum TokenTypes",
          "name": "_method",
          "type": "uint8"
        },
        {
          "internalType": "uint256",
          "name": "_price",
          "type": "uint256"
        },
        {
          "internalType": "string",
          "name": "_cid",
          "type": "string"
        },
        {
          "internalType": "uint256",
          "name": "_tokenId",
          "type": "uint256"
        }
      ],
      "name": "listArticle",
      "outputs": [],
      "stateMutability": "nonpayable",
      "type": "function"
    },
    {
      "inputs": [],
      "name": "nft",
      "outputs": [
        {
          "internalType": "contract INFT",
          "name": "",
          "type": "address"
        }
      ],
      "stateMutability": "view",
      "type": "function"
    },
    {
      "inputs": [],
      "name": "owner",
      "outputs": [
        {
          "internalType": "address",
          "name": "",
          "type": "address"
        }
      ],
      "stateMutability": "view",
      "type": "function"
    },
    {
      "inputs": [
        {
          "internalType": "uint256",
          "name": "tokenId",
          "type": "uint256"
        }
      ],
      "name": "purchaseArticle",
      "outputs": [],
      "stateMutability": "payable",
      "type": "function"
    },
    {
      "inputs": [],
      "name": "renounceOwnership",
      "outputs": [],
      "stateMutability": "nonpayable",
      "type": "function"
    },
    {
      "inputs": [
        {
          "internalType": "uint256",
          "name": "tokenId",
          "type": "uint256"
        }
      ],
      "name": "sendStar",
      "outputs": [],
      "stateMutability": "nonpayable",
      "type": "function"
    },
    {
      "inputs": [
        {
          "internalType": "uint256",
          "name": "",
          "type": "uint256"
        }
      ],
      "name": "tokenIdToStar",
      "outputs": [
        {
          "internalType": "uint256",
          "name": "",
          "type": "uint256"
        }
      ],
      "stateMutability": "view",
      "type": "function"
    },
    {
      "inputs": [
        {
          "internalType": "address",
          "name": "newOwner",
          "type": "address"
        }
      ],
      "name": "transferOwnership",
      "outputs": [],
      "stateMutability": "nonpayable",
      "type": "function"
    },
    {
      "inputs": [],
      "name": "treasury",
      "outputs": [
        {
          "internalType": "contract ITreasury",
          "name": "",
          "type": "address"
        }
      ],
      "stateMutability": "view",
      "type": "function"
    },
    {
      "inputs": [
        {
          "internalType": "address",
          "name": "",
          "type": "address"
        }
      ],
      "name": "userToStar",
      "outputs": [
        {
          "internalType": "uint256",
          "name": "",
          "type": "uint256"
        }
      ],
      "stateMutability": "view",
      "type": "function"
    },
    {
      "stateMutability": "payable",
      "type": "receive"
    }
  ],
  "bytecode": "0x60806040526005600360146101000a81548160ff021916908360ff1602179055503480156200002d57600080fd5b50604051620033d0380380620033d0833981810160405281019062000053919062000340565b62000073620000676200015660201b60201c565b6200015e60201b60201c565b82600160006101000a81548173ffffffffffffffffffffffffffffffffffffffff021916908373ffffffffffffffffffffffffffffffffffffffff16021790555081600260006101000a81548173ffffffffffffffffffffffffffffffffffffffff021916908373ffffffffffffffffffffffffffffffffffffffff16021790555080600360006101000a81548173ffffffffffffffffffffffffffffffffffffffff021916908373ffffffffffffffffffffffffffffffffffffffff1602179055506200014d60046200022260201b620017e21760201c565b5050506200039c565b600033905090565b60008060009054906101000a900473ffffffffffffffffffffffffffffffffffffffff169050816000806101000a81548173ffffffffffffffffffffffffffffffffffffffff021916908373ffffffffffffffffffffffffffffffffffffffff1602179055508173ffffffffffffffffffffffffffffffffffffffff168173ffffffffffffffffffffffffffffffffffffffff167f8be0079c531659141344cd1fd0a4f28419497f9722a3daafe3b4186f6b6457e060405160405180910390a35050565b6001816000016000828254019250508190555050565b600080fd5b600073ffffffffffffffffffffffffffffffffffffffff82169050919050565b60006200026a826200023d565b9050919050565b60006200027e826200025d565b9050919050565b620002908162000271565b81146200029c57600080fd5b50565b600081519050620002b08162000285565b92915050565b6000620002c3826200025d565b9050919050565b620002d581620002b6565b8114620002e157600080fd5b50565b600081519050620002f581620002ca565b92915050565b600062000308826200025d565b9050919050565b6200031a81620002fb565b81146200032657600080fd5b50565b6000815190506200033a816200030f565b92915050565b6000806000606084860312156200035c576200035b62000238565b5b60006200036c868287016200029f565b93505060206200037f86828701620002e4565b9250506040620003928682870162000329565b9150509250925092565b61302480620003ac6000396000f3fe6080604052600436106100ec5760003560e01c80638da5cb5b1161008a578063bb1631cf11610059578063bb1631cf146102c9578063bd85d867146102f4578063d27d21ec14610331578063f2fde38b1461035a576100f3565b80638da5cb5b1461022e578063932de709146102595780639dba6e6414610270578063ac4f861a146102ad576100f3565b806347ccca02116100c657806347ccca021461018457806361d027b3146101af578063715018a6146101da5780638952ca69146101f1576100f3565b80630b2ed850146100f5578063232506d71461011e578063267d9ae114610147576100f3565b366100f357005b005b34801561010157600080fd5b5061011c60048036038101906101179190611be5565b610383565b005b34801561012a57600080fd5b5061014560048036038101906101409190611d7d565b6104db565b005b34801561015357600080fd5b5061016e60048036038101906101699190611be5565b610763565b60405161017b9190611e0f565b60405180910390f35b34801561019057600080fd5b5061019961077b565b6040516101a69190611ea9565b60405180910390f35b3480156101bb57600080fd5b506101c46107a1565b6040516101d19190611ee5565b60405180910390f35b3480156101e657600080fd5b506101ef6107c7565b005b3480156101fd57600080fd5b5061021860048036038101906102139190611f3e565b6107db565b6040516102259190611e0f565b60405180910390f35b34801561023a57600080fd5b506102436107f3565b6040516102509190611f7a565b60405180910390f35b34801561026557600080fd5b5061026e61081c565b005b34801561027c57600080fd5b5061029760048036038101906102929190611f95565b610868565b6040516102a49190611ff0565b60405180910390f35b6102c760048036038101906102c29190611be5565b610897565b005b3480156102d557600080fd5b506102de6110d2565b6040516102eb919061202c565b60405180910390f35b34801561030057600080fd5b5061031b60048036038101906103169190611be5565b6110f8565b60405161032891906121d0565b60405180910390f35b34801561033d57600080fd5b5061035860048036038101906103539190611be5565b61129a565b005b34801561036657600080fd5b50610381600480360381019061037c9190611f3e565b61175f565b005b61038c816117f8565b6103cb576040517f08c379a00000000000000000000000000000000000000000000000000000000081526004016103c29061224f565b60405180910390fd5b6008600082815260200190815260200160002060030160009054906101000a900473ffffffffffffffffffffffffffffffffffffffff1673ffffffffffffffffffffffffffffffffffffffff163373ffffffffffffffffffffffffffffffffffffffff161461046f576040517f08c379a0000000000000000000000000000000000000000000000000000000008152600401610466906122e1565b60405180910390fd5b60086000828152602001908152602001600020600080820160006101000a81549060ff021916905560018201600090556002820160006104af9190611aee565b6003820160006101000a81549073ffffffffffffffffffffffffffffffffffffffff0219169055505050565b816000815111610520576040517f08c379a00000000000000000000000000000000000000000000000000000000081526004016105179061234d565b60405180910390fd5b826000600190506000600190505b6105386004611996565b81101561058f5782805190602001206008600083815260200190815260200160002060020160405161056a9190612470565b60405180910390200361057c57600091505b8080610587906124b6565b91505061052e565b50806105d0576040517f08c379a00000000000000000000000000000000000000000000000000000000081526004016105c79061254a565b60405180910390fd5b6105d9846117f8565b15610619576040517f08c379a0000000000000000000000000000000000000000000000000000000008152600401610610906125b6565b60405180910390fd5b836106246004611996565b11610664576040517f08c379a000000000000000000000000000000000000000000000000000000000815260040161065b90612622565b60405180910390fd5b604051806080016040528088600181111561068257610681612047565b5b81526020018781526020018681526020013373ffffffffffffffffffffffffffffffffffffffff168152506008600086815260200190815260200160002060008201518160000160006101000a81548160ff021916908360018111156106eb576106ea612047565b5b021790555060208201518160010155604082015181600201908161070f91906127e4565b5060608201518160030160006101000a81548173ffffffffffffffffffffffffffffffffffffffff021916908373ffffffffffffffffffffffffffffffffffffffff16021790555090505050505050505050565b60066020528060005260406000206000915090505481565b600260009054906101000a900473ffffffffffffffffffffffffffffffffffffffff1681565b600360009054906101000a900473ffffffffffffffffffffffffffffffffffffffff1681565b6107cf6119a4565b6107d96000611a22565b565b60056020528060005260406000206000915090505481565b60008060009054906101000a900473ffffffffffffffffffffffffffffffffffffffff16905090565b7fcb8241adb0c3fdb35b70c24ce35c5eb0c17af7431c99f827d44a445ca624176a6108476004611996565b6040516108549190611e0f565b60405180910390a161086660046117e2565b565b60076020528160005260406000206020528060005260406000206000915091509054906101000a900460ff1681565b6108a0816117f8565b6108df576040517f08c379a00000000000000000000000000000000000000000000000000000000081526004016108d69061224f565b60405180910390fd5b3373ffffffffffffffffffffffffffffffffffffffff166008600083815260200190815260200160002060030160009054906101000a900473ffffffffffffffffffffffffffffffffffffffff1673ffffffffffffffffffffffffffffffffffffffff1603610983576040517f08c379a000000000000000000000000000000000000000000000000000000000815260040161097a90612928565b60405180910390fd5b6000600860008381526020019081526020016000206040518060800160405290816000820160009054906101000a900460ff1660018111156109c8576109c7612047565b5b60018111156109da576109d9612047565b5b8152602001600182015481526020016002820180546109f89061239c565b80601f0160208091040260200160405190810160405280929190818152602001828054610a249061239c565b8015610a715780601f10610a4657610100808354040283529160200191610a71565b820191906000526020600020905b815481529060010190602001808311610a5457829003601f168201915b505050505081526020016003820160009054906101000a900473ffffffffffffffffffffffffffffffffffffffff1673ffffffffffffffffffffffffffffffffffffffff1673ffffffffffffffffffffffffffffffffffffffff168152505090506000600360149054906101000a900460ff1660ff1660648360200151610af89190612977565b610b0291906129a8565b90506000600360149054906101000a900460ff166064610b2291906129f7565b60ff1660648460200151610b369190612977565b610b4091906129a8565b90506000600360009054906101000a900473ffffffffffffffffffffffffffffffffffffffff16905060006001811115610b7d57610b7c612047565b5b84600001516001811115610b9457610b93612047565b5b03610d065783602001513414610bdf576040517f08c379a0000000000000000000000000000000000000000000000000000000008152600401610bd690612a9e565b60405180910390fd5b8073ffffffffffffffffffffffffffffffffffffffff166108fc849081150290604051600060405180830381858888f19350505050158015610c25573d6000803e3d6000fd5b50836060015173ffffffffffffffffffffffffffffffffffffffff166108fc839081150290604051600060405180830381858888f19350505050158015610c70573d6000803e3d6000fd5b50600360009054906101000a900473ffffffffffffffffffffffffffffffffffffffff1673ffffffffffffffffffffffffffffffffffffffff1663b8633d136000856040518363ffffffff1660e01b8152600401610ccf929190612acd565b600060405180830381600087803b158015610ce957600080fd5b505af1158015610cfd573d6000803e3d6000fd5b50505050611036565b600180811115610d1957610d18612047565b5b84600001516001811115610d3057610d2f612047565b5b036110355760003414610d78576040517f08c379a0000000000000000000000000000000000000000000000000000000008152600401610d6f90612b42565b60405180910390fd5b8360200151600160009054906101000a900473ffffffffffffffffffffffffffffffffffffffff1673ffffffffffffffffffffffffffffffffffffffff166370a08231336040518263ffffffff1660e01b8152600401610dd89190611f7a565b602060405180830381865afa158015610df5573d6000803e3d6000fd5b505050506040513d601f19601f82011682018060405250810190610e199190612b77565b1015610e5a576040517f08c379a0000000000000000000000000000000000000000000000000000000008152600401610e5190612c16565b60405180910390fd5b600160009054906101000a900473ffffffffffffffffffffffffffffffffffffffff1673ffffffffffffffffffffffffffffffffffffffff166323b872dd3383866040518463ffffffff1660e01b8152600401610eb993929190612c57565b6020604051808303816000875af1158015610ed8573d6000803e3d6000fd5b505050506040513d601f19601f82011682018060405250810190610efc9190612cba565b50600160009054906101000a900473ffffffffffffffffffffffffffffffffffffffff1673ffffffffffffffffffffffffffffffffffffffff166323b872dd338660600151856040518463ffffffff1660e01b8152600401610f6093929190612c57565b6020604051808303816000875af1158015610f7f573d6000803e3d6000fd5b505050506040513d601f19601f82011682018060405250810190610fa39190612cba565b50600360009054906101000a900473ffffffffffffffffffffffffffffffffffffffff1673ffffffffffffffffffffffffffffffffffffffff1663b8633d136001856040518363ffffffff1660e01b8152600401611002929190612acd565b600060405180830381600087803b15801561101c57600080fd5b505af1158015611030573d6000803e3d6000fd5b505050505b5b600260009054906101000a900473ffffffffffffffffffffffffffffffffffffffff1673ffffffffffffffffffffffffffffffffffffffff16637861db64868660400151336040518463ffffffff1660e01b815260040161109993929190612d20565b600060405180830381600087803b1580156110b357600080fd5b505af11580156110c7573d6000803e3d6000fd5b505050505050505050565b600160009054906101000a900473ffffffffffffffffffffffffffffffffffffffff1681565b611100611b2e565b611109826117f8565b611148576040517f08c379a000000000000000000000000000000000000000000000000000000000815260040161113f9061224f565b60405180910390fd5b600860008381526020019081526020016000206040518060800160405290816000820160009054906101000a900460ff16600181111561118b5761118a612047565b5b600181111561119d5761119c612047565b5b8152602001600182015481526020016002820180546111bb9061239c565b80601f01602080910402602001604051908101604052809291908181526020018280546111e79061239c565b80156112345780601f1061120957610100808354040283529160200191611234565b820191906000526020600020905b81548152906001019060200180831161121757829003601f168201915b505050505081526020016003820160009054906101000a900473ffffffffffffffffffffffffffffffffffffffff1673ffffffffffffffffffffffffffffffffffffffff1673ffffffffffffffffffffffffffffffffffffffff16815250509050919050565b6000600260009054906101000a900473ffffffffffffffffffffffffffffffffffffffff1673ffffffffffffffffffffffffffffffffffffffff1662fdd58e33846040518363ffffffff1660e01b81526004016112f8929190612d5e565b602060405180830381865afa158015611315573d6000803e3d6000fd5b505050506040513d601f19601f820116820180604052508101906113399190612b77565b11611379576040517f08c379a000000000000000000000000000000000000000000000000000000000815260040161137090612dd3565b60405180910390fd5b600760003373ffffffffffffffffffffffffffffffffffffffff1673ffffffffffffffffffffffffffffffffffffffff168152602001908152602001600020600082815260200190815260200160002060009054906101000a900460ff1615611417576040517f08c379a000000000000000000000000000000000000000000000000000000000815260040161140e90612e65565b60405180910390fd5b6000600860008381526020019081526020016000206040518060800160405290816000820160009054906101000a900460ff16600181111561145c5761145b612047565b5b600181111561146e5761146d612047565b5b81526020016001820154815260200160028201805461148c9061239c565b80601f01602080910402602001604051908101604052809291908181526020018280546114b89061239c565b80156115055780601f106114da57610100808354040283529160200191611505565b820191906000526020600020905b8154815290600101906020018083116114e857829003601f168201915b505050505081526020016003820160009054906101000a900473ffffffffffffffffffffffffffffffffffffffff1673ffffffffffffffffffffffffffffffffffffffff1673ffffffffffffffffffffffffffffffffffffffff168152505090506001600760003373ffffffffffffffffffffffffffffffffffffffff1673ffffffffffffffffffffffffffffffffffffffff168152602001908152602001600020600084815260200190815260200160002060006101000a81548160ff0219169083151502179055506000816020015190508060056000846060015173ffffffffffffffffffffffffffffffffffffffff1673ffffffffffffffffffffffffffffffffffffffff168152602001908152602001600020600082825461162b9190612e85565b92505081905550806006600085815260200190815260200160002060008282546116559190612e85565b92505081905550600360009054906101000a900473ffffffffffffffffffffffffffffffffffffffff1673ffffffffffffffffffffffffffffffffffffffff16636b1af75e836060015133846040518463ffffffff1660e01b81526004016116bf93929190612eb9565b600060405180830381600087803b1580156116d957600080fd5b505af11580156116ed573d6000803e3d6000fd5b50505050816060015173ffffffffffffffffffffffffffffffffffffffff163373ffffffffffffffffffffffffffffffffffffffff167f802c3055f4e36494e62ab7de34530f8129aebc612307ec8d9168d9427326f32d836040516117529190611e0f565b60405180910390a3505050565b6117676119a4565b600073ffffffffffffffffffffffffffffffffffffffff168173ffffffffffffffffffffffffffffffffffffffff16036117d6576040517f08c379a00000000000000000000000000000000000000000000000000000000081526004016117cd90612f62565b60405180910390fd5b6117df81611a22565b50565b6001816000016000828254019250508190555050565b600080600860008481526020019081526020016000206040518060800160405290816000820160009054906101000a900460ff16600181111561183e5761183d612047565b5b60018111156118505761184f612047565b5b81526020016001820154815260200160028201805461186e9061239c565b80601f016020809104026020016040519081016040528092919081815260200182805461189a9061239c565b80156118e75780601f106118bc576101008083540402835291602001916118e7565b820191906000526020600020905b8154815290600101906020018083116118ca57829003601f168201915b505050505081526020016003820160009054906101000a900473ffffffffffffffffffffffffffffffffffffffff1673ffffffffffffffffffffffffffffffffffffffff1673ffffffffffffffffffffffffffffffffffffffff16815250509050600081604001515111801561198e5750600073ffffffffffffffffffffffffffffffffffffffff16816060015173ffffffffffffffffffffffffffffffffffffffff1614155b915050919050565b600081600001549050919050565b6119ac611ae6565b73ffffffffffffffffffffffffffffffffffffffff166119ca6107f3565b73ffffffffffffffffffffffffffffffffffffffff1614611a20576040517f08c379a0000000000000000000000000000000000000000000000000000000008152600401611a1790612fce565b60405180910390fd5b565b60008060009054906101000a900473ffffffffffffffffffffffffffffffffffffffff169050816000806101000a81548173ffffffffffffffffffffffffffffffffffffffff021916908373ffffffffffffffffffffffffffffffffffffffff1602179055508173ffffffffffffffffffffffffffffffffffffffff168173ffffffffffffffffffffffffffffffffffffffff167f8be0079c531659141344cd1fd0a4f28419497f9722a3daafe3b4186f6b6457e060405160405180910390a35050565b600033905090565b508054611afa9061239c565b6000825580601f10611b0c5750611b2b565b601f016020900490600052602060002090810190611b2a9190611b7e565b5b50565b604051806080016040528060006001811115611b4d57611b4c612047565b5b81526020016000815260200160608152602001600073ffffffffffffffffffffffffffffffffffffffff1681525090565b5b80821115611b97576000816000905550600101611b7f565b5090565b6000604051905090565b600080fd5b600080fd5b6000819050919050565b611bc281611baf565b8114611bcd57600080fd5b50565b600081359050611bdf81611bb9565b92915050565b600060208284031215611bfb57611bfa611ba5565b5b6000611c0984828501611bd0565b91505092915050565b60028110611c1f57600080fd5b50565b600081359050611c3181611c12565b92915050565b600080fd5b600080fd5b6000601f19601f8301169050919050565b7f4e487b7100000000000000000000000000000000000000000000000000000000600052604160045260246000fd5b611c8a82611c41565b810181811067ffffffffffffffff82111715611ca957611ca8611c52565b5b80604052505050565b6000611cbc611b9b565b9050611cc88282611c81565b919050565b600067ffffffffffffffff821115611ce857611ce7611c52565b5b611cf182611c41565b9050602081019050919050565b82818337600083830152505050565b6000611d20611d1b84611ccd565b611cb2565b905082815260208101848484011115611d3c57611d3b611c3c565b5b611d47848285611cfe565b509392505050565b600082601f830112611d6457611d63611c37565b5b8135611d74848260208601611d0d565b91505092915050565b60008060008060808587031215611d9757611d96611ba5565b5b6000611da587828801611c22565b9450506020611db687828801611bd0565b935050604085013567ffffffffffffffff811115611dd757611dd6611baa565b5b611de387828801611d4f565b9250506060611df487828801611bd0565b91505092959194509250565b611e0981611baf565b82525050565b6000602082019050611e246000830184611e00565b92915050565b600073ffffffffffffffffffffffffffffffffffffffff82169050919050565b6000819050919050565b6000611e6f611e6a611e6584611e2a565b611e4a565b611e2a565b9050919050565b6000611e8182611e54565b9050919050565b6000611e9382611e76565b9050919050565b611ea381611e88565b82525050565b6000602082019050611ebe6000830184611e9a565b92915050565b6000611ecf82611e76565b9050919050565b611edf81611ec4565b82525050565b6000602082019050611efa6000830184611ed6565b92915050565b6000611f0b82611e2a565b9050919050565b611f1b81611f00565b8114611f2657600080fd5b50565b600081359050611f3881611f12565b92915050565b600060208284031215611f5457611f53611ba5565b5b6000611f6284828501611f29565b91505092915050565b611f7481611f00565b82525050565b6000602082019050611f8f6000830184611f6b565b92915050565b60008060408385031215611fac57611fab611ba5565b5b6000611fba85828601611f29565b9250506020611fcb85828601611bd0565b9150509250929050565b60008115159050919050565b611fea81611fd5565b82525050565b60006020820190506120056000830184611fe1565b92915050565b600061201682611e76565b9050919050565b6120268161200b565b82525050565b6000602082019050612041600083018461201d565b92915050565b7f4e487b7100000000000000000000000000000000000000000000000000000000600052602160045260246000fd5b6002811061208757612086612047565b5b50565b600081905061209882612076565b919050565b60006120a88261208a565b9050919050565b6120b88161209d565b82525050565b6120c781611baf565b82525050565b600081519050919050565b600082825260208201905092915050565b60005b838110156121075780820151818401526020810190506120ec565b60008484015250505050565b600061211e826120cd565b61212881856120d8565b93506121388185602086016120e9565b61214181611c41565b840191505092915050565b600061215782611e2a565b9050919050565b6121678161214c565b82525050565b600060808301600083015161218560008601826120af565b50602083015161219860208601826120be565b50604083015184820360408601526121b08282612113565b91505060608301516121c5606086018261215e565b508091505092915050565b600060208201905081810360008301526121ea818461216d565b905092915050565b600082825260208201905092915050565b7f74686520746f6b656e496420646f6573206e6f74206578697374000000000000600082015250565b6000612239601a836121f2565b915061224482612203565b602082019050919050565b600060208201905081810360008301526122688161222c565b9050919050565b7f63616c6c6572206973206e6f742074686520617574686f72206f66207468697360008201527f2061727469636c65000000000000000000000000000000000000000000000000602082015250565b60006122cb6028836121f2565b91506122d68261226f565b604082019050919050565b600060208201905081810360008301526122fa816122be565b9050919050565b7f6369642073686f756c64206e6f7420626520656d707479000000000000000000600082015250565b60006123376017836121f2565b915061234282612301565b602082019050919050565b600060208201905081810360008301526123668161232a565b9050919050565b7f4e487b7100000000000000000000000000000000000000000000000000000000600052602260045260246000fd5b600060028204905060018216806123b457607f821691505b6020821081036123c7576123c661236d565b5b50919050565b600081905092915050565b60008190508160005260206000209050919050565b600081546123fa8161239c565b61240481866123cd565b9450600182166000811461241f576001811461243457612467565b60ff1983168652811515820286019350612467565b61243d856123d8565b60005b8381101561245f57815481890152600182019150602081019050612440565b838801955050505b50505092915050565b600061247c82846123ed565b915081905092915050565b7f4e487b7100000000000000000000000000000000000000000000000000000000600052601160045260246000fd5b60006124c182611baf565b91507fffffffffffffffffffffffffffffffffffffffffffffffffffffffffffffffff82036124f3576124f2612487565b5b600182019050919050565b7f746865204349442068617320616c7265616479206c6973746572640000000000600082015250565b6000612534601b836121f2565b915061253f826124fe565b602082019050919050565b6000602082019050818103600083015261256381612527565b9050919050565b7f746f6b656e49642063616e6e6f74206475706c69636174650000000000000000600082015250565b60006125a06018836121f2565b91506125ab8261256a565b602082019050919050565b600060208201905081810360008301526125cf81612593565b9050919050565b7f696e76616c696420746f6b656e20696400000000000000000000000000000000600082015250565b600061260c6010836121f2565b9150612617826125d6565b602082019050919050565b6000602082019050818103600083015261263b816125ff565b9050919050565b60008190508160005260206000209050919050565b60006020601f8301049050919050565b600082821b905092915050565b6000600883026126a47fffffffffffffffffffffffffffffffffffffffffffffffffffffffffffffffff82612667565b6126ae8683612667565b95508019841693508086168417925050509392505050565b60006126e16126dc6126d784611baf565b611e4a565b611baf565b9050919050565b6000819050919050565b6126fb836126c6565b61270f612707826126e8565b848454612674565b825550505050565b600090565b612724612717565b61272f8184846126f2565b505050565b5b818110156127535761274860008261271c565b600181019050612735565b5050565b601f8211156127985761276981612642565b61277284612657565b81016020851015612781578190505b61279561278d85612657565b830182612734565b50505b505050565b600082821c905092915050565b60006127bb6000198460080261279d565b1980831691505092915050565b60006127d483836127aa565b9150826002028217905092915050565b6127ed826120cd565b67ffffffffffffffff81111561280657612805611c52565b5b612810825461239c565b61281b828285612757565b600060209050601f83116001811461284e576000841561283c578287015190505b61284685826127c8565b8655506128ae565b601f19841661285c86612642565b60005b828110156128845784890151825560018201915060208501945060208101905061285f565b868310156128a1578489015161289d601f8916826127aa565b8355505b6001600288020188555050505b505050505050565b7f63616e6e6f742062757920796f75722061727469636c6520796f757273656c7660008201527f6573000000000000000000000000000000000000000000000000000000000000602082015250565b60006129126022836121f2565b915061291d826128b6565b604082019050919050565b6000602082019050818103600083015261294181612905565b9050919050565b7f4e487b7100000000000000000000000000000000000000000000000000000000600052601260045260246000fd5b600061298282611baf565b915061298d83611baf565b92508261299d5761299c612948565b5b828204905092915050565b60006129b382611baf565b91506129be83611baf565b92508282026129cc81611baf565b915082820484148315176129e3576129e2612487565b5b5092915050565b600060ff82169050919050565b6000612a02826129ea565b9150612a0d836129ea565b9250828203905060ff811115612a2657612a25612487565b5b92915050565b7f696e73756666696369656e742076616c756520666f722074686520707269636560008201527f206f66207468652061727469636c650000000000000000000000000000000000602082015250565b6000612a88602f836121f2565b9150612a9382612a2c565b604082019050919050565b60006020820190508181036000830152612ab781612a7b565b9050919050565b612ac78161209d565b82525050565b6000604082019050612ae26000830185612abe565b612aef6020830184611e00565b9392505050565b7f76616c75652073686f756c642062652030000000000000000000000000000000600082015250565b6000612b2c6011836121f2565b9150612b3782612af6565b602082019050919050565b60006020820190508181036000830152612b5b81612b1f565b9050919050565b600081519050612b7181611bb9565b92915050565b600060208284031215612b8d57612b8c611ba5565b5b6000612b9b84828501612b62565b91505092915050565b7f696e73756666696369656e742076616c756520666f722074686520617274696360008201527f6c65277320707269636500000000000000000000000000000000000000000000602082015250565b6000612c00602a836121f2565b9150612c0b82612ba4565b604082019050919050565b60006020820190508181036000830152612c2f81612bf3565b9050919050565b6000612c4182611e76565b9050919050565b612c5181612c36565b82525050565b6000606082019050612c6c6000830186611f6b565b612c796020830185612c48565b612c866040830184611e00565b949350505050565b612c9781611fd5565b8114612ca257600080fd5b50565b600081519050612cb481612c8e565b92915050565b600060208284031215612cd057612ccf611ba5565b5b6000612cde84828501612ca5565b91505092915050565b6000612cf2826120cd565b612cfc81856121f2565b9350612d0c8185602086016120e9565b612d1581611c41565b840191505092915050565b6000606082019050612d356000830186611e00565b8181036020830152612d478185612ce7565b9050612d566040830184611f6b565b949350505050565b6000604082019050612d736000830185611f6b565b612d806020830184611e00565b9392505050565b7f63616c6c657220646f7365206e6f742068617665207468652061727469636c65600082015250565b6000612dbd6020836121f2565b9150612dc882612d87565b602082019050919050565b60006020820190508181036000830152612dec81612db0565b9050919050565b7f796f7527766520616c72656164792073656e74207374617220746f207468697360008201527f2061727469636c65000000000000000000000000000000000000000000000000602082015250565b6000612e4f6028836121f2565b9150612e5a82612df3565b604082019050919050565b60006020820190508181036000830152612e7e81612e42565b9050919050565b6000612e9082611baf565b9150612e9b83611baf565b9250828201905080821115612eb357612eb2612487565b5b92915050565b6000606082019050612ece6000830186612c48565b612edb6020830185611f6b565b612ee86040830184611e00565b949350505050565b7f4f776e61626c653a206e6577206f776e657220697320746865207a65726f206160008201527f6464726573730000000000000000000000000000000000000000000000000000602082015250565b6000612f4c6026836121f2565b9150612f5782612ef0565b604082019050919050565b60006020820190508181036000830152612f7b81612f3f565b9050919050565b7f4f776e61626c653a2063616c6c6572206973206e6f7420746865206f776e6572600082015250565b6000612fb86020836121f2565b9150612fc382612f82565b602082019050919050565b60006020820190508181036000830152612fe781612fab565b905091905056fea264697066735822122046a74f6b5e86e16ee86b3be9c30e5189c6325cbb2271ed46eea0f9a7396d2fea64736f6c63430008120033",
  "linkReferences": {},
  "deployedLinkReferences": {}
}