{
  "_format": "hh-sol-artifact-1",
  "contractName": "Treasury",
  "sourceName": "contracts/Treasury.sol",
  "abi": [
    {
      "anonymous": false,
      "inputs": [
        {
          "indexed": true,
          "internalType": "address",
          "name": "previousOwner",
          "type": "address"
        },
        {
          "indexed": true,
          "internalType": "address",
          "name": "newOwner",
          "type": "address"
        }
      ],
      "name": "OwnershipTransferred",
      "type": "event"
    },
    {
      "stateMutability": "payable",
      "type": "fallback"
    },
    {
      "inputs": [],
      "name": "burnToken",
      "outputs": [],
      "stateMutability": "nonpayable",
      "type": "function"
    },
    {
      "inputs": [],
      "name": "marketContract",
      "outputs": [
        {
          "internalType": "address",
          "name": "",
          "type": "address"
        }
      ],
      "stateMutability": "view",
      "type": "function"
    },
    {
      "inputs": [],
      "name": "owner",
      "outputs": [
        {
          "internalType": "address",
          "name": "",
          "type": "address"
        }
      ],
      "stateMutability": "view",
      "type": "function"
    },
    {
      "inputs": [
        {
          "internalType": "enum TokenTypes",
          "name": "tokenType",
          "type": "uint8"
        },
        {
          "internalType": "uint256",
          "name": "amount",
          "type": "uint256"
        }
      ],
      "name": "receiveSales",
      "outputs": [],
      "stateMutability": "nonpayable",
      "type": "function"
    },
    {
      "inputs": [],
      "name": "renounceOwnership",
      "outputs": [],
      "stateMutability": "nonpayable",
      "type": "function"
    },
    {
      "inputs": [],
      "name": "salesFtAmount",
      "outputs": [
        {
          "internalType": "uint256",
          "name": "",
          "type": "uint256"
        }
      ],
      "stateMutability": "view",
      "type": "function"
    },
    {
      "inputs": [],
      "name": "salesMaticAmount",
      "outputs": [
        {
          "internalType": "uint256",
          "name": "",
          "type": "uint256"
        }
      ],
      "stateMutability": "view",
      "type": "function"
    },
    {
      "inputs": [
        {
          "internalType": "address",
          "name": "author",
          "type": "address"
        },
        {
          "internalType": "address",
          "name": "user",
          "type": "address"
        },
        {
          "internalType": "uint256",
          "name": "amount",
          "type": "uint256"
        }
      ],
      "name": "sendReward",
      "outputs": [],
      "stateMutability": "nonpayable",
      "type": "function"
    },
    {
      "inputs": [
        {
          "internalType": "address",
          "name": "marketAddress",
          "type": "address"
        }
      ],
      "name": "setMarketContract",
      "outputs": [],
      "stateMutability": "nonpayable",
      "type": "function"
    },
    {
      "inputs": [
        {
          "internalType": "contract IFT",
          "name": "ftContractAddress",
          "type": "address"
        }
      ],
      "name": "setToken",
      "outputs": [],
      "stateMutability": "nonpayable",
      "type": "function"
    },
    {
      "inputs": [
        {
          "internalType": "address",
          "name": "newOwner",
          "type": "address"
        }
      ],
      "name": "transferOwnership",
      "outputs": [],
      "stateMutability": "nonpayable",
      "type": "function"
    },
    {
      "inputs": [
        {
          "internalType": "address",
          "name": "to",
          "type": "address"
        },
        {
          "internalType": "uint256",
          "name": "amount",
          "type": "uint256"
        }
      ],
      "name": "withdrawFT",
      "outputs": [],
      "stateMutability": "nonpayable",
      "type": "function"
    },
    {
      "stateMutability": "payable",
      "type": "receive"
    }
  ],
  "bytecode": "0x608060405234801561001057600080fd5b5061002d61002261003260201b60201c565b61003a60201b60201c565b6100fe565b600033905090565b60008060009054906101000a900473ffffffffffffffffffffffffffffffffffffffff169050816000806101000a81548173ffffffffffffffffffffffffffffffffffffffff021916908373ffffffffffffffffffffffffffffffffffffffff1602179055508173ffffffffffffffffffffffffffffffffffffffff168173ffffffffffffffffffffffffffffffffffffffff167f8be0079c531659141344cd1fd0a4f28419497f9722a3daafe3b4186f6b6457e060405160405180910390a35050565b61102b8061010d6000396000f3fe6080604052600436106100ab5760003560e01c80638da5cb5b116100645780638da5cb5b1461019c578063a1794bcd146101c7578063b8633d13146101f2578063f2fde38b1461021b578063f85ea2ab14610244578063faa0a2641461026d576100b2565b8063144fa6d7146100b457806342d9788d146100dd578063481a347f14610108578063570a054f146101315780636b1af75e1461015c578063715018a614610185576100b2565b366100b257005b005b3480156100c057600080fd5b506100db60048036038101906100d69190610a8a565b610284565b005b3480156100e957600080fd5b506100f26102d0565b6040516100ff9190610ad0565b60405180910390f35b34801561011457600080fd5b5061012f600480360381019061012a9190610b43565b6102d6565b005b34801561013d57600080fd5b5061014661040b565b6040516101539190610ad0565b60405180910390f35b34801561016857600080fd5b50610183600480360381019061017e9190610b83565b610411565b005b34801561019157600080fd5b5061019a610600565b005b3480156101a857600080fd5b506101b1610614565b6040516101be9190610be5565b60405180910390f35b3480156101d357600080fd5b506101dc61063d565b6040516101e99190610be5565b60405180910390f35b3480156101fe57600080fd5b5061021960048036038101906102149190610c25565b610663565b005b34801561022757600080fd5b50610242600480360381019061023d9190610c65565b61075b565b005b34801561025057600080fd5b5061026b60048036038101906102669190610c65565b6107de565b005b34801561027957600080fd5b5061028261082a565b005b61028c6108cb565b80600260006101000a81548173ffffffffffffffffffffffffffffffffffffffff021916908373ffffffffffffffffffffffffffffffffffffffff16021790555050565b60035481565b600160009054906101000a900473ffffffffffffffffffffffffffffffffffffffff1673ffffffffffffffffffffffffffffffffffffffff163373ffffffffffffffffffffffffffffffffffffffff1614610366576040517f08c379a000000000000000000000000000000000000000000000000000000000815260040161035d90610d15565b60405180910390fd5b600260009054906101000a900473ffffffffffffffffffffffffffffffffffffffff1673ffffffffffffffffffffffffffffffffffffffff1663a9059cbb83836040518363ffffffff1660e01b81526004016103c3929190610d35565b6020604051808303816000875af11580156103e2573d6000803e3d6000fd5b505050506040513d601f19601f820116820180604052508101906104069190610d96565b505050565b60045481565b600160009054906101000a900473ffffffffffffffffffffffffffffffffffffffff1673ffffffffffffffffffffffffffffffffffffffff163373ffffffffffffffffffffffffffffffffffffffff16146104a1576040517f08c379a000000000000000000000000000000000000000000000000000000000815260040161049890610d15565b60405180910390fd5b60006007600a836104b29190610e21565b6104bc9190610e52565b905060006003600a846104cf9190610e21565b6104d99190610e52565b9050600260009054906101000a900473ffffffffffffffffffffffffffffffffffffffff1673ffffffffffffffffffffffffffffffffffffffff166340c10f1986846040518363ffffffff1660e01b8152600401610538929190610d35565b600060405180830381600087803b15801561055257600080fd5b505af1158015610566573d6000803e3d6000fd5b50505050600260009054906101000a900473ffffffffffffffffffffffffffffffffffffffff1673ffffffffffffffffffffffffffffffffffffffff166340c10f1985836040518363ffffffff1660e01b81526004016105c7929190610d35565b600060405180830381600087803b1580156105e157600080fd5b505af11580156105f5573d6000803e3d6000fd5b505050505050505050565b6106086108cb565b6106126000610949565b565b60008060009054906101000a900473ffffffffffffffffffffffffffffffffffffffff16905090565b600160009054906101000a900473ffffffffffffffffffffffffffffffffffffffff1681565b600160009054906101000a900473ffffffffffffffffffffffffffffffffffffffff1673ffffffffffffffffffffffffffffffffffffffff163373ffffffffffffffffffffffffffffffffffffffff16146106f3576040517f08c379a00000000000000000000000000000000000000000000000000000000081526004016106ea90610d15565b60405180910390fd5b6000600181111561070757610706610e94565b5b82600181111561071a57610719610e94565b5b0361073d5780600460008282546107319190610ec3565b92505081905550610757565b806003600082825461074f9190610ec3565b925050819055505b5050565b6107636108cb565b600073ffffffffffffffffffffffffffffffffffffffff168173ffffffffffffffffffffffffffffffffffffffff16036107d2576040517f08c379a00000000000000000000000000000000000000000000000000000000081526004016107c990610f69565b60405180910390fd5b6107db81610949565b50565b6107e66108cb565b80600160006101000a81548173ffffffffffffffffffffffffffffffffffffffff021916908373ffffffffffffffffffffffffffffffffffffffff16021790555050565b6108326108cb565b600260009054906101000a900473ffffffffffffffffffffffffffffffffffffffff1673ffffffffffffffffffffffffffffffffffffffff166342966c686003546040518263ffffffff1660e01b815260040161088f9190610ad0565b600060405180830381600087803b1580156108a957600080fd5b505af11580156108bd573d6000803e3d6000fd5b505050506000600381905550565b6108d3610a0d565b73ffffffffffffffffffffffffffffffffffffffff166108f1610614565b73ffffffffffffffffffffffffffffffffffffffff1614610947576040517f08c379a000000000000000000000000000000000000000000000000000000000815260040161093e90610fd5565b60405180910390fd5b565b60008060009054906101000a900473ffffffffffffffffffffffffffffffffffffffff169050816000806101000a81548173ffffffffffffffffffffffffffffffffffffffff021916908373ffffffffffffffffffffffffffffffffffffffff1602179055508173ffffffffffffffffffffffffffffffffffffffff168173ffffffffffffffffffffffffffffffffffffffff167f8be0079c531659141344cd1fd0a4f28419497f9722a3daafe3b4186f6b6457e060405160405180910390a35050565b600033905090565b600080fd5b600073ffffffffffffffffffffffffffffffffffffffff82169050919050565b6000610a4582610a1a565b9050919050565b6000610a5782610a3a565b9050919050565b610a6781610a4c565b8114610a7257600080fd5b50565b600081359050610a8481610a5e565b92915050565b600060208284031215610aa057610a9f610a15565b5b6000610aae84828501610a75565b91505092915050565b6000819050919050565b610aca81610ab7565b82525050565b6000602082019050610ae56000830184610ac1565b92915050565b610af481610a3a565b8114610aff57600080fd5b50565b600081359050610b1181610aeb565b92915050565b610b2081610ab7565b8114610b2b57600080fd5b50565b600081359050610b3d81610b17565b92915050565b60008060408385031215610b5a57610b59610a15565b5b6000610b6885828601610b02565b9250506020610b7985828601610b2e565b9150509250929050565b600080600060608486031215610b9c57610b9b610a15565b5b6000610baa86828701610b02565b9350506020610bbb86828701610b02565b9250506040610bcc86828701610b2e565b9150509250925092565b610bdf81610a3a565b82525050565b6000602082019050610bfa6000830184610bd6565b92915050565b60028110610c0d57600080fd5b50565b600081359050610c1f81610c00565b92915050565b60008060408385031215610c3c57610c3b610a15565b5b6000610c4a85828601610c10565b9250506020610c5b85828601610b2e565b9150509250929050565b600060208284031215610c7b57610c7a610a15565b5b6000610c8984828501610b02565b91505092915050565b600082825260208201905092915050565b7f6f6e6c7920746865204d61726b6574706c6163652063616e2063616c6c20746860008201527f6973000000000000000000000000000000000000000000000000000000000000602082015250565b6000610cff602283610c92565b9150610d0a82610ca3565b604082019050919050565b60006020820190508181036000830152610d2e81610cf2565b9050919050565b6000604082019050610d4a6000830185610bd6565b610d576020830184610ac1565b9392505050565b60008115159050919050565b610d7381610d5e565b8114610d7e57600080fd5b50565b600081519050610d9081610d6a565b92915050565b600060208284031215610dac57610dab610a15565b5b6000610dba84828501610d81565b91505092915050565b7f4e487b7100000000000000000000000000000000000000000000000000000000600052601260045260246000fd5b7f4e487b7100000000000000000000000000000000000000000000000000000000600052601160045260246000fd5b6000610e2c82610ab7565b9150610e3783610ab7565b925082610e4757610e46610dc3565b5b828204905092915050565b6000610e5d82610ab7565b9150610e6883610ab7565b9250828202610e7681610ab7565b91508282048414831517610e8d57610e8c610df2565b5b5092915050565b7f4e487b7100000000000000000000000000000000000000000000000000000000600052602160045260246000fd5b6000610ece82610ab7565b9150610ed983610ab7565b9250828201905080821115610ef157610ef0610df2565b5b92915050565b7f4f776e61626c653a206e6577206f776e657220697320746865207a65726f206160008201527f6464726573730000000000000000000000000000000000000000000000000000602082015250565b6000610f53602683610c92565b9150610f5e82610ef7565b604082019050919050565b60006020820190508181036000830152610f8281610f46565b9050919050565b7f4f776e61626c653a2063616c6c6572206973206e6f7420746865206f776e6572600082015250565b6000610fbf602083610c92565b9150610fca82610f89565b602082019050919050565b60006020820190508181036000830152610fee81610fb2565b905091905056fea2646970667358221220f8d7a34f3ac8016340eafac2d963f549abb7e93a6f5753384c67ab8806954c7d64736f6c63430008120033",
  "linkReferences": {},
  "deployedLinkReferences": {}
}