{
  "_format": "hh-sol-artifact-1",
  "contractName": "NFT",
  "sourceName": "contracts/NFT.sol",
  "abi": [
    {
      "inputs": [],
      "stateMutability": "nonpayable",
      "type": "constructor"
    },
    {
      "anonymous": false,
      "inputs": [
        {
          "indexed": true,
          "internalType": "address",
          "name": "account",
          "type": "address"
        },
        {
          "indexed": true,
          "internalType": "address",
          "name": "operator",
          "type": "address"
        },
        {
          "indexed": false,
          "internalType": "bool",
          "name": "approved",
          "type": "bool"
        }
      ],
      "name": "ApprovalForAll",
      "type": "event"
    },
    {
      "anonymous": false,
      "inputs": [
        {
          "indexed": true,
          "internalType": "address",
          "name": "previousOwner",
          "type": "address"
        },
        {
          "indexed": true,
          "internalType": "address",
          "name": "newOwner",
          "type": "address"
        }
      ],
      "name": "OwnershipTransferred",
      "type": "event"
    },
    {
      "anonymous": false,
      "inputs": [
        {
          "indexed": true,
          "internalType": "address",
          "name": "operator",
          "type": "address"
        },
        {
          "indexed": true,
          "internalType": "address",
          "name": "from",
          "type": "address"
        },
        {
          "indexed": true,
          "internalType": "address",
          "name": "to",
          "type": "address"
        },
        {
          "indexed": false,
          "internalType": "uint256[]",
          "name": "ids",
          "type": "uint256[]"
        },
        {
          "indexed": false,
          "internalType": "uint256[]",
          "name": "values",
          "type": "uint256[]"
        }
      ],
      "name": "TransferBatch",
      "type": "event"
    },
    {
      "anonymous": false,
      "inputs": [
        {
          "indexed": true,
          "internalType": "address",
          "name": "operator",
          "type": "address"
        },
        {
          "indexed": true,
          "internalType": "address",
          "name": "from",
          "type": "address"
        },
        {
          "indexed": true,
          "internalType": "address",
          "name": "to",
          "type": "address"
        },
        {
          "indexed": false,
          "internalType": "uint256",
          "name": "id",
          "type": "uint256"
        },
        {
          "indexed": false,
          "internalType": "uint256",
          "name": "value",
          "type": "uint256"
        }
      ],
      "name": "TransferSingle",
      "type": "event"
    },
    {
      "anonymous": false,
      "inputs": [
        {
          "indexed": false,
          "internalType": "string",
          "name": "value",
          "type": "string"
        },
        {
          "indexed": true,
          "internalType": "uint256",
          "name": "id",
          "type": "uint256"
        }
      ],
      "name": "URI",
      "type": "event"
    },
    {
      "inputs": [
        {
          "internalType": "address",
          "name": "account",
          "type": "address"
        },
        {
          "internalType": "uint256",
          "name": "id",
          "type": "uint256"
        }
      ],
      "name": "balanceOf",
      "outputs": [
        {
          "internalType": "uint256",
          "name": "",
          "type": "uint256"
        }
      ],
      "stateMutability": "view",
      "type": "function"
    },
    {
      "inputs": [
        {
          "internalType": "address[]",
          "name": "accounts",
          "type": "address[]"
        },
        {
          "internalType": "uint256[]",
          "name": "ids",
          "type": "uint256[]"
        }
      ],
      "name": "balanceOfBatch",
      "outputs": [
        {
          "internalType": "uint256[]",
          "name": "",
          "type": "uint256[]"
        }
      ],
      "stateMutability": "view",
      "type": "function"
    },
    {
      "inputs": [
        {
          "internalType": "address",
          "name": "from",
          "type": "address"
        },
        {
          "internalType": "uint256[]",
          "name": "tokenIds",
          "type": "uint256[]"
        },
        {
          "internalType": "uint256[]",
          "name": "amounts",
          "type": "uint256[]"
        }
      ],
      "name": "burn",
      "outputs": [],
      "stateMutability": "nonpayable",
      "type": "function"
    },
    {
      "inputs": [
        {
          "internalType": "address",
          "name": "account",
          "type": "address"
        },
        {
          "internalType": "address",
          "name": "operator",
          "type": "address"
        }
      ],
      "name": "isApprovedForAll",
      "outputs": [
        {
          "internalType": "bool",
          "name": "",
          "type": "bool"
        }
      ],
      "stateMutability": "view",
      "type": "function"
    },
    {
      "inputs": [],
      "name": "marketContract",
      "outputs": [
        {
          "internalType": "address",
          "name": "",
          "type": "address"
        }
      ],
      "stateMutability": "view",
      "type": "function"
    },
    {
      "inputs": [
        {
          "internalType": "uint256",
          "name": "tokenId",
          "type": "uint256"
        },
        {
          "internalType": "string",
          "name": "tokenUri",
          "type": "string"
        },
        {
          "internalType": "address",
          "name": "recipient",
          "type": "address"
        }
      ],
      "name": "mintAndTransfer",
      "outputs": [],
      "stateMutability": "nonpayable",
      "type": "function"
    },
    {
      "inputs": [],
      "name": "name",
      "outputs": [
        {
          "internalType": "string",
          "name": "",
          "type": "string"
        }
      ],
      "stateMutability": "view",
      "type": "function"
    },
    {
      "inputs": [],
      "name": "owner",
      "outputs": [
        {
          "internalType": "address",
          "name": "",
          "type": "address"
        }
      ],
      "stateMutability": "view",
      "type": "function"
    },
    {
      "inputs": [],
      "name": "renounceOwnership",
      "outputs": [],
      "stateMutability": "nonpayable",
      "type": "function"
    },
    {
      "inputs": [
        {
          "internalType": "address",
          "name": "from",
          "type": "address"
        },
        {
          "internalType": "address",
          "name": "to",
          "type": "address"
        },
        {
          "internalType": "uint256[]",
          "name": "ids",
          "type": "uint256[]"
        },
        {
          "internalType": "uint256[]",
          "name": "amounts",
          "type": "uint256[]"
        },
        {
          "internalType": "bytes",
          "name": "data",
          "type": "bytes"
        }
      ],
      "name": "safeBatchTransferFrom",
      "outputs": [],
      "stateMutability": "nonpayable",
      "type": "function"
    },
    {
      "inputs": [
        {
          "internalType": "address",
          "name": "from",
          "type": "address"
        },
        {
          "internalType": "address",
          "name": "to",
          "type": "address"
        },
        {
          "internalType": "uint256",
          "name": "id",
          "type": "uint256"
        },
        {
          "internalType": "uint256",
          "name": "amount",
          "type": "uint256"
        },
        {
          "internalType": "bytes",
          "name": "data",
          "type": "bytes"
        }
      ],
      "name": "safeTransferFrom",
      "outputs": [],
      "stateMutability": "nonpayable",
      "type": "function"
    },
    {
      "inputs": [
        {
          "internalType": "address",
          "name": "operator",
          "type": "address"
        },
        {
          "internalType": "bool",
          "name": "approved",
          "type": "bool"
        }
      ],
      "name": "setApprovalForAll",
      "outputs": [],
      "stateMutability": "nonpayable",
      "type": "function"
    },
    {
      "inputs": [
        {
          "internalType": "address",
          "name": "marketAddress",
          "type": "address"
        }
      ],
      "name": "setMarketContract",
      "outputs": [],
      "stateMutability": "nonpayable",
      "type": "function"
    },
    {
      "inputs": [
        {
          "internalType": "bytes4",
          "name": "interfaceId",
          "type": "bytes4"
        }
      ],
      "name": "supportsInterface",
      "outputs": [
        {
          "internalType": "bool",
          "name": "",
          "type": "bool"
        }
      ],
      "stateMutability": "view",
      "type": "function"
    },
    {
      "inputs": [],
      "name": "symbol",
      "outputs": [
        {
          "internalType": "string",
          "name": "",
          "type": "string"
        }
      ],
      "stateMutability": "view",
      "type": "function"
    },
    {
      "inputs": [
        {
          "internalType": "address",
          "name": "newOwner",
          "type": "address"
        }
      ],
      "name": "transferOwnership",
      "outputs": [],
      "stateMutability": "nonpayable",
      "type": "function"
    },
    {
      "inputs": [
        {
          "internalType": "uint256",
          "name": "tokenId",
          "type": "uint256"
        }
      ],
      "name": "uri",
      "outputs": [
        {
          "internalType": "string",
          "name": "",
          "type": "string"
        }
      ],
      "stateMutability": "view",
      "type": "function"
    }
  ],
  "bytecode": "0x60806040526040518060200160405280600081525060049081620000249190620004e7565b506040518060400160405280600481526020017f444b545000000000000000000000000000000000000000000000000000000000815250600690816200006b9190620004e7565b506040518060400160405280600881526020017f444b5450204e465400000000000000000000000000000000000000000000000081525060079081620000b29190620004e7565b50348015620000c057600080fd5b506040518060400160405280601581526020017f68747470733a2f2f697066732e696f2f697066732f000000000000000000000081525062000108816200017560201b60201c565b50620001296200011d6200018a60201b60201c565b6200019260201b60201c565b6200016f6040518060400160405280601581526020017f68747470733a2f2f697066732e696f2f697066732f00000000000000000000008152506200025860201b60201c565b620005ce565b8060029081620001869190620004e7565b5050565b600033905090565b6000600360009054906101000a900473ffffffffffffffffffffffffffffffffffffffff16905081600360006101000a81548173ffffffffffffffffffffffffffffffffffffffff021916908373ffffffffffffffffffffffffffffffffffffffff1602179055508173ffffffffffffffffffffffffffffffffffffffff168173ffffffffffffffffffffffffffffffffffffffff167f8be0079c531659141344cd1fd0a4f28419497f9722a3daafe3b4186f6b6457e060405160405180910390a35050565b8060049081620002699190620004e7565b5050565b600081519050919050565b7f4e487b7100000000000000000000000000000000000000000000000000000000600052604160045260246000fd5b7f4e487b7100000000000000000000000000000000000000000000000000000000600052602260045260246000fd5b60006002820490506001821680620002ef57607f821691505b602082108103620003055762000304620002a7565b5b50919050565b60008190508160005260206000209050919050565b60006020601f8301049050919050565b600082821b905092915050565b6000600883026200036f7fffffffffffffffffffffffffffffffffffffffffffffffffffffffffffffffff8262000330565b6200037b868362000330565b95508019841693508086168417925050509392505050565b6000819050919050565b6000819050919050565b6000620003c8620003c2620003bc8462000393565b6200039d565b62000393565b9050919050565b6000819050919050565b620003e483620003a7565b620003fc620003f382620003cf565b8484546200033d565b825550505050565b600090565b6200041362000404565b62000420818484620003d9565b505050565b5b8181101562000448576200043c60008262000409565b60018101905062000426565b5050565b601f821115620004975762000461816200030b565b6200046c8462000320565b810160208510156200047c578190505b620004946200048b8562000320565b83018262000425565b50505b505050565b600082821c905092915050565b6000620004bc600019846008026200049c565b1980831691505092915050565b6000620004d78383620004a9565b9150826002028217905092915050565b620004f2826200026d565b67ffffffffffffffff8111156200050e576200050d62000278565b5b6200051a8254620002d6565b620005278282856200044c565b600060209050601f8311600181146200055f57600084156200054a578287015190505b620005568582620004c9565b865550620005c6565b601f1984166200056f866200030b565b60005b82811015620005995784890151825560018201915060208501945060208101905062000572565b86831015620005b95784890151620005b5601f891682620004a9565b8355505b6001600288020188555050505b505050505050565b613b0f80620005de6000396000f3fe608060405234801561001057600080fd5b506004361061010a5760003560e01c80637861db64116100a2578063a22cb46511610071578063a22cb465146102a5578063e985e9c5146102c1578063f242432a146102f1578063f2fde38b1461030d578063f85ea2ab146103295761010a565b80637861db641461022f5780638da5cb5b1461024b57806395d89b4114610269578063a1794bcd146102875761010a565b80632eb2c2d6116100de5780632eb2c2d6146101bd5780633db0f8ab146101d95780634e1273f4146101f5578063715018a6146102255761010a565b8062fdd58e1461010f57806301ffc9a71461013f57806306fdde031461016f5780630e89341c1461018d575b600080fd5b61012960048036038101906101249190612066565b610345565b60405161013691906120b5565b60405180910390f35b61015960048036038101906101549190612128565b61040d565b6040516101669190612170565b60405180910390f35b6101776104ef565b604051610184919061221b565b60405180910390f35b6101a760048036038101906101a2919061223d565b61057d565b6040516101b4919061221b565b60405180910390f35b6101d760048036038101906101d29190612467565b610662565b005b6101f360048036038101906101ee9190612536565b610703565b005b61020f600480360381019061020a9190612684565b610788565b60405161021c91906127ba565b60405180910390f35b61022d6108a1565b005b6102496004803603810190610244919061287d565b6108b5565b005b610253610970565b60405161026091906128fb565b60405180910390f35b61027161099a565b60405161027e919061221b565b60405180910390f35b61028f610a28565b60405161029c91906128fb565b60405180910390f35b6102bf60048036038101906102ba9190612942565b610a4e565b005b6102db60048036038101906102d69190612982565b610a64565b6040516102e89190612170565b60405180910390f35b61030b600480360381019061030691906129c2565b610af8565b005b61032760048036038101906103229190612a59565b610b99565b005b610343600480360381019061033e9190612a59565b610c1c565b005b60008073ffffffffffffffffffffffffffffffffffffffff168373ffffffffffffffffffffffffffffffffffffffff16036103b5576040517f08c379a00000000000000000000000000000000000000000000000000000000081526004016103ac90612af8565b60405180910390fd5b60008083815260200190815260200160002060008473ffffffffffffffffffffffffffffffffffffffff1673ffffffffffffffffffffffffffffffffffffffff16815260200190815260200160002054905092915050565b60007fd9b67a26000000000000000000000000000000000000000000000000000000007bffffffffffffffffffffffffffffffffffffffffffffffffffffffff1916827bffffffffffffffffffffffffffffffffffffffffffffffffffffffff191614806104d857507f0e89341c000000000000000000000000000000000000000000000000000000007bffffffffffffffffffffffffffffffffffffffffffffffffffffffff1916827bffffffffffffffffffffffffffffffffffffffffffffffffffffffff1916145b806104e857506104e782610c68565b5b9050919050565b600780546104fc90612b47565b80601f016020809104026020016040519081016040528092919081815260200182805461052890612b47565b80156105755780601f1061054a57610100808354040283529160200191610575565b820191906000526020600020905b81548152906001019060200180831161055857829003601f168201915b505050505081565b6060600060056000848152602001908152602001600020805461059f90612b47565b80601f01602080910402602001604051908101604052809291908181526020018280546105cb90612b47565b80156106185780601f106105ed57610100808354040283529160200191610618565b820191906000526020600020905b8154815290600101906020018083116105fb57829003601f168201915b5050505050905060008151116106365761063183610cd2565b61065a565b60048160405160200161064a929190612c4c565b6040516020818303038152906040525b915050919050565b61066a610d66565b73ffffffffffffffffffffffffffffffffffffffff168573ffffffffffffffffffffffffffffffffffffffff1614806106b057506106af856106aa610d66565b610a64565b5b6106ef576040517f08c379a00000000000000000000000000000000000000000000000000000000081526004016106e690612ce2565b60405180910390fd5b6106fc8585858585610d6e565b5050505050565b61070b610d66565b73ffffffffffffffffffffffffffffffffffffffff168373ffffffffffffffffffffffffffffffffffffffff1614610778576040517f08c379a000000000000000000000000000000000000000000000000000000000815260040161076f90612d4e565b60405180910390fd5b61078383838361108f565b505050565b606081518351146107ce576040517f08c379a00000000000000000000000000000000000000000000000000000000081526004016107c590612de0565b60405180910390fd5b6000835167ffffffffffffffff8111156107eb576107ea61226f565b5b6040519080825280602002602001820160405280156108195781602001602082028036833780820191505090505b50905060005b84518110156108965761086685828151811061083e5761083d612e00565b5b602002602001015185838151811061085957610858612e00565b5b6020026020010151610345565b82828151811061087957610878612e00565b5b6020026020010181815250508061088f90612e5e565b905061081f565b508091505092915050565b6108a961135d565b6108b360006113db565b565b600860009054906101000a900473ffffffffffffffffffffffffffffffffffffffff1673ffffffffffffffffffffffffffffffffffffffff163373ffffffffffffffffffffffffffffffffffffffff1614610945576040517f08c379a000000000000000000000000000000000000000000000000000000000815260040161093c90612f18565b60405180910390fd5b61096181846001604051806020016040528060008152506114a1565b61096b8383611651565b505050565b6000600360009054906101000a900473ffffffffffffffffffffffffffffffffffffffff16905090565b600680546109a790612b47565b80601f01602080910402602001604051908101604052809291908181526020018280546109d390612b47565b8015610a205780601f106109f557610100808354040283529160200191610a20565b820191906000526020600020905b815481529060010190602001808311610a0357829003601f168201915b505050505081565b600860009054906101000a900473ffffffffffffffffffffffffffffffffffffffff1681565b610a60610a59610d66565b83836116b6565b5050565b6000600160008473ffffffffffffffffffffffffffffffffffffffff1673ffffffffffffffffffffffffffffffffffffffff16815260200190815260200160002060008373ffffffffffffffffffffffffffffffffffffffff1673ffffffffffffffffffffffffffffffffffffffff16815260200190815260200160002060009054906101000a900460ff16905092915050565b610b00610d66565b73ffffffffffffffffffffffffffffffffffffffff168573ffffffffffffffffffffffffffffffffffffffff161480610b465750610b4585610b40610d66565b610a64565b5b610b85576040517f08c379a0000000000000000000000000000000000000000000000000000000008152600401610b7c90612ce2565b60405180910390fd5b610b928585858585611822565b5050505050565b610ba161135d565b600073ffffffffffffffffffffffffffffffffffffffff168173ffffffffffffffffffffffffffffffffffffffff1603610c10576040517f08c379a0000000000000000000000000000000000000000000000000000000008152600401610c0790612faa565b60405180910390fd5b610c19816113db565b50565b610c2461135d565b80600860006101000a81548173ffffffffffffffffffffffffffffffffffffffff021916908373ffffffffffffffffffffffffffffffffffffffff16021790555050565b60007f01ffc9a7000000000000000000000000000000000000000000000000000000007bffffffffffffffffffffffffffffffffffffffffffffffffffffffff1916827bffffffffffffffffffffffffffffffffffffffffffffffffffffffff1916149050919050565b606060028054610ce190612b47565b80601f0160208091040260200160405190810160405280929190818152602001828054610d0d90612b47565b8015610d5a5780601f10610d2f57610100808354040283529160200191610d5a565b820191906000526020600020905b815481529060010190602001808311610d3d57829003601f168201915b50505050509050919050565b600033905090565b8151835114610db2576040517f08c379a0000000000000000000000000000000000000000000000000000000008152600401610da99061303c565b60405180910390fd5b600073ffffffffffffffffffffffffffffffffffffffff168473ffffffffffffffffffffffffffffffffffffffff1603610e21576040517f08c379a0000000000000000000000000000000000000000000000000000000008152600401610e18906130ce565b60405180910390fd5b6000610e2b610d66565b9050610e3b818787878787611abd565b60005b8451811015610fec576000858281518110610e5c57610e5b612e00565b5b602002602001015190506000858381518110610e7b57610e7a612e00565b5b60200260200101519050600080600084815260200190815260200160002060008b73ffffffffffffffffffffffffffffffffffffffff1673ffffffffffffffffffffffffffffffffffffffff16815260200190815260200160002054905081811015610f1c576040517f08c379a0000000000000000000000000000000000000000000000000000000008152600401610f1390613160565b60405180910390fd5b81810360008085815260200190815260200160002060008c73ffffffffffffffffffffffffffffffffffffffff1673ffffffffffffffffffffffffffffffffffffffff168152602001908152602001600020819055508160008085815260200190815260200160002060008b73ffffffffffffffffffffffffffffffffffffffff1673ffffffffffffffffffffffffffffffffffffffff1681526020019081526020016000206000828254610fd19190613180565b9250508190555050505080610fe590612e5e565b9050610e3e565b508473ffffffffffffffffffffffffffffffffffffffff168673ffffffffffffffffffffffffffffffffffffffff168273ffffffffffffffffffffffffffffffffffffffff167f4a39dc06d4c0dbc64b70af90fd698a233a518aa5d07e595d983b8c0526c8f7fb87876040516110639291906131b4565b60405180910390a4611079818787878787611b6b565b611087818787878787611b73565b505050505050565b600073ffffffffffffffffffffffffffffffffffffffff168373ffffffffffffffffffffffffffffffffffffffff16036110fe576040517f08c379a00000000000000000000000000000000000000000000000000000000081526004016110f59061325d565b60405180910390fd5b8051825114611142576040517f08c379a00000000000000000000000000000000000000000000000000000000081526004016111399061303c565b60405180910390fd5b600061114c610d66565b905061116c81856000868660405180602001604052806000815250611abd565b60005b83518110156112b957600084828151811061118d5761118c612e00565b5b6020026020010151905060008483815181106111ac576111ab612e00565b5b60200260200101519050600080600084815260200190815260200160002060008973ffffffffffffffffffffffffffffffffffffffff1673ffffffffffffffffffffffffffffffffffffffff1681526020019081526020016000205490508181101561124d576040517f08c379a0000000000000000000000000000000000000000000000000000000008152600401611244906132ef565b60405180910390fd5b81810360008085815260200190815260200160002060008a73ffffffffffffffffffffffffffffffffffffffff1673ffffffffffffffffffffffffffffffffffffffff1681526020019081526020016000208190555050505080806112b190612e5e565b91505061116f565b50600073ffffffffffffffffffffffffffffffffffffffff168473ffffffffffffffffffffffffffffffffffffffff168273ffffffffffffffffffffffffffffffffffffffff167f4a39dc06d4c0dbc64b70af90fd698a233a518aa5d07e595d983b8c0526c8f7fb86866040516113319291906131b4565b60405180910390a461135781856000868660405180602001604052806000815250611b6b565b50505050565b611365610d66565b73ffffffffffffffffffffffffffffffffffffffff16611383610970565b73ffffffffffffffffffffffffffffffffffffffff16146113d9576040517f08c379a00000000000000000000000000000000000000000000000000000000081526004016113d09061335b565b60405180910390fd5b565b6000600360009054906101000a900473ffffffffffffffffffffffffffffffffffffffff16905081600360006101000a81548173ffffffffffffffffffffffffffffffffffffffff021916908373ffffffffffffffffffffffffffffffffffffffff1602179055508173ffffffffffffffffffffffffffffffffffffffff168173ffffffffffffffffffffffffffffffffffffffff167f8be0079c531659141344cd1fd0a4f28419497f9722a3daafe3b4186f6b6457e060405160405180910390a35050565b600073ffffffffffffffffffffffffffffffffffffffff168473ffffffffffffffffffffffffffffffffffffffff1603611510576040517f08c379a0000000000000000000000000000000000000000000000000000000008152600401611507906133ed565b60405180910390fd5b600061151a610d66565b9050600061152785611d4a565b9050600061153485611d4a565b905061154583600089858589611abd565b8460008088815260200190815260200160002060008973ffffffffffffffffffffffffffffffffffffffff1673ffffffffffffffffffffffffffffffffffffffff16815260200190815260200160002060008282546115a49190613180565b925050819055508673ffffffffffffffffffffffffffffffffffffffff16600073ffffffffffffffffffffffffffffffffffffffff168473ffffffffffffffffffffffffffffffffffffffff167fc3d58168c5ae7397731d063d5bbf3d657854427343f4c083240f7aacaa2d0f62898960405161162292919061340d565b60405180910390a461163983600089858589611b6b565b61164883600089898989611dc4565b50505050505050565b8060056000848152602001908152602001600020908161167191906135cd565b50817f6bb7ff708619ba0610cba295a58592e0451dee2622938c8755667688daf3529b61169d8461057d565b6040516116aa919061221b565b60405180910390a25050565b8173ffffffffffffffffffffffffffffffffffffffff168373ffffffffffffffffffffffffffffffffffffffff1603611724576040517f08c379a000000000000000000000000000000000000000000000000000000000815260040161171b90613711565b60405180910390fd5b80600160008573ffffffffffffffffffffffffffffffffffffffff1673ffffffffffffffffffffffffffffffffffffffff16815260200190815260200160002060008473ffffffffffffffffffffffffffffffffffffffff1673ffffffffffffffffffffffffffffffffffffffff16815260200190815260200160002060006101000a81548160ff0219169083151502179055508173ffffffffffffffffffffffffffffffffffffffff168373ffffffffffffffffffffffffffffffffffffffff167f17307eab39ab6107e8899845ad3d59bd9653f200f220920489ca2b5937696c31836040516118159190612170565b60405180910390a3505050565b600073ffffffffffffffffffffffffffffffffffffffff168473ffffffffffffffffffffffffffffffffffffffff1603611891576040517f08c379a0000000000000000000000000000000000000000000000000000000008152600401611888906130ce565b60405180910390fd5b600061189b610d66565b905060006118a885611d4a565b905060006118b585611d4a565b90506118c5838989858589611abd565b600080600088815260200190815260200160002060008a73ffffffffffffffffffffffffffffffffffffffff1673ffffffffffffffffffffffffffffffffffffffff1681526020019081526020016000205490508581101561195c576040517f08c379a000000000000000000000000000000000000000000000000000000000815260040161195390613160565b60405180910390fd5b85810360008089815260200190815260200160002060008b73ffffffffffffffffffffffffffffffffffffffff1673ffffffffffffffffffffffffffffffffffffffff168152602001908152602001600020819055508560008089815260200190815260200160002060008a73ffffffffffffffffffffffffffffffffffffffff1673ffffffffffffffffffffffffffffffffffffffff1681526020019081526020016000206000828254611a119190613180565b925050819055508773ffffffffffffffffffffffffffffffffffffffff168973ffffffffffffffffffffffffffffffffffffffff168573ffffffffffffffffffffffffffffffffffffffff167fc3d58168c5ae7397731d063d5bbf3d657854427343f4c083240f7aacaa2d0f628a8a604051611a8e92919061340d565b60405180910390a4611aa4848a8a86868a611b6b565b611ab2848a8a8a8a8a611dc4565b505050505050505050565b600073ffffffffffffffffffffffffffffffffffffffff168573ffffffffffffffffffffffffffffffffffffffff161480611b245750600073ffffffffffffffffffffffffffffffffffffffff168473ffffffffffffffffffffffffffffffffffffffff16145b611b63576040517f08c379a0000000000000000000000000000000000000000000000000000000008152600401611b5a9061377d565b60405180910390fd5b505050505050565b505050505050565b611b928473ffffffffffffffffffffffffffffffffffffffff16611f9b565b15611d42578373ffffffffffffffffffffffffffffffffffffffff1663bc197c8187878686866040518663ffffffff1660e01b8152600401611bd89594939291906137f2565b6020604051808303816000875af1925050508015611c1457506040513d601f19601f82011682018060405250810190611c11919061386f565b60015b611cb957611c206138a9565b806308c379a003611c7c5750611c346138cb565b80611c3f5750611c7e565b806040517f08c379a0000000000000000000000000000000000000000000000000000000008152600401611c73919061221b565b60405180910390fd5b505b6040517f08c379a0000000000000000000000000000000000000000000000000000000008152600401611cb0906139cd565b60405180910390fd5b63bc197c8160e01b7bffffffffffffffffffffffffffffffffffffffffffffffffffffffff1916817bffffffffffffffffffffffffffffffffffffffffffffffffffffffff191614611d40576040517f08c379a0000000000000000000000000000000000000000000000000000000008152600401611d3790613a5f565b60405180910390fd5b505b505050505050565b60606000600167ffffffffffffffff811115611d6957611d6861226f565b5b604051908082528060200260200182016040528015611d975781602001602082028036833780820191505090505b5090508281600081518110611daf57611dae612e00565b5b60200260200101818152505080915050919050565b611de38473ffffffffffffffffffffffffffffffffffffffff16611f9b565b15611f93578373ffffffffffffffffffffffffffffffffffffffff1663f23a6e6187878686866040518663ffffffff1660e01b8152600401611e29959493929190613a7f565b6020604051808303816000875af1925050508015611e6557506040513d601f19601f82011682018060405250810190611e62919061386f565b60015b611f0a57611e716138a9565b806308c379a003611ecd5750611e856138cb565b80611e905750611ecf565b806040517f08c379a0000000000000000000000000000000000000000000000000000000008152600401611ec4919061221b565b60405180910390fd5b505b6040517f08c379a0000000000000000000000000000000000000000000000000000000008152600401611f01906139cd565b60405180910390fd5b63f23a6e6160e01b7bffffffffffffffffffffffffffffffffffffffffffffffffffffffff1916817bffffffffffffffffffffffffffffffffffffffffffffffffffffffff191614611f91576040517f08c379a0000000000000000000000000000000000000000000000000000000008152600401611f8890613a5f565b60405180910390fd5b505b505050505050565b6000808273ffffffffffffffffffffffffffffffffffffffff163b119050919050565b6000604051905090565b600080fd5b600080fd5b600073ffffffffffffffffffffffffffffffffffffffff82169050919050565b6000611ffd82611fd2565b9050919050565b61200d81611ff2565b811461201857600080fd5b50565b60008135905061202a81612004565b92915050565b6000819050919050565b61204381612030565b811461204e57600080fd5b50565b6000813590506120608161203a565b92915050565b6000806040838503121561207d5761207c611fc8565b5b600061208b8582860161201b565b925050602061209c85828601612051565b9150509250929050565b6120af81612030565b82525050565b60006020820190506120ca60008301846120a6565b92915050565b60007fffffffff0000000000000000000000000000000000000000000000000000000082169050919050565b612105816120d0565b811461211057600080fd5b50565b600081359050612122816120fc565b92915050565b60006020828403121561213e5761213d611fc8565b5b600061214c84828501612113565b91505092915050565b60008115159050919050565b61216a81612155565b82525050565b60006020820190506121856000830184612161565b92915050565b600081519050919050565b600082825260208201905092915050565b60005b838110156121c55780820151818401526020810190506121aa565b60008484015250505050565b6000601f19601f8301169050919050565b60006121ed8261218b565b6121f78185612196565b93506122078185602086016121a7565b612210816121d1565b840191505092915050565b6000602082019050818103600083015261223581846121e2565b905092915050565b60006020828403121561225357612252611fc8565b5b600061226184828501612051565b91505092915050565b600080fd5b7f4e487b7100000000000000000000000000000000000000000000000000000000600052604160045260246000fd5b6122a7826121d1565b810181811067ffffffffffffffff821117156122c6576122c561226f565b5b80604052505050565b60006122d9611fbe565b90506122e5828261229e565b919050565b600067ffffffffffffffff8211156123055761230461226f565b5b602082029050602081019050919050565b600080fd5b600061232e612329846122ea565b6122cf565b9050808382526020820190506020840283018581111561235157612350612316565b5b835b8181101561237a57806123668882612051565b845260208401935050602081019050612353565b5050509392505050565b600082601f8301126123995761239861226a565b5b81356123a984826020860161231b565b91505092915050565b600080fd5b600067ffffffffffffffff8211156123d2576123d161226f565b5b6123db826121d1565b9050602081019050919050565b82818337600083830152505050565b600061240a612405846123b7565b6122cf565b905082815260208101848484011115612426576124256123b2565b5b6124318482856123e8565b509392505050565b600082601f83011261244e5761244d61226a565b5b813561245e8482602086016123f7565b91505092915050565b600080600080600060a0868803121561248357612482611fc8565b5b60006124918882890161201b565b95505060206124a28882890161201b565b945050604086013567ffffffffffffffff8111156124c3576124c2611fcd565b5b6124cf88828901612384565b935050606086013567ffffffffffffffff8111156124f0576124ef611fcd565b5b6124fc88828901612384565b925050608086013567ffffffffffffffff81111561251d5761251c611fcd565b5b61252988828901612439565b9150509295509295909350565b60008060006060848603121561254f5761254e611fc8565b5b600061255d8682870161201b565b935050602084013567ffffffffffffffff81111561257e5761257d611fcd565b5b61258a86828701612384565b925050604084013567ffffffffffffffff8111156125ab576125aa611fcd565b5b6125b786828701612384565b9150509250925092565b600067ffffffffffffffff8211156125dc576125db61226f565b5b602082029050602081019050919050565b60006126006125fb846125c1565b6122cf565b9050808382526020820190506020840283018581111561262357612622612316565b5b835b8181101561264c5780612638888261201b565b845260208401935050602081019050612625565b5050509392505050565b600082601f83011261266b5761266a61226a565b5b813561267b8482602086016125ed565b91505092915050565b6000806040838503121561269b5761269a611fc8565b5b600083013567ffffffffffffffff8111156126b9576126b8611fcd565b5b6126c585828601612656565b925050602083013567ffffffffffffffff8111156126e6576126e5611fcd565b5b6126f285828601612384565b9150509250929050565b600081519050919050565b600082825260208201905092915050565b6000819050602082019050919050565b61273181612030565b82525050565b60006127438383612728565b60208301905092915050565b6000602082019050919050565b6000612767826126fc565b6127718185612707565b935061277c83612718565b8060005b838110156127ad5781516127948882612737565b975061279f8361274f565b925050600181019050612780565b5085935050505092915050565b600060208201905081810360008301526127d4818461275c565b905092915050565b600067ffffffffffffffff8211156127f7576127f661226f565b5b612800826121d1565b9050602081019050919050565b600061282061281b846127dc565b6122cf565b90508281526020810184848401111561283c5761283b6123b2565b5b6128478482856123e8565b509392505050565b600082601f8301126128645761286361226a565b5b813561287484826020860161280d565b91505092915050565b60008060006060848603121561289657612895611fc8565b5b60006128a486828701612051565b935050602084013567ffffffffffffffff8111156128c5576128c4611fcd565b5b6128d18682870161284f565b92505060406128e28682870161201b565b9150509250925092565b6128f581611ff2565b82525050565b600060208201905061291060008301846128ec565b92915050565b61291f81612155565b811461292a57600080fd5b50565b60008135905061293c81612916565b92915050565b6000806040838503121561295957612958611fc8565b5b60006129678582860161201b565b92505060206129788582860161292d565b9150509250929050565b6000806040838503121561299957612998611fc8565b5b60006129a78582860161201b565b92505060206129b88582860161201b565b9150509250929050565b600080600080600060a086880312156129de576129dd611fc8565b5b60006129ec8882890161201b565b95505060206129fd8882890161201b565b9450506040612a0e88828901612051565b9350506060612a1f88828901612051565b925050608086013567ffffffffffffffff811115612a4057612a3f611fcd565b5b612a4c88828901612439565b9150509295509295909350565b600060208284031215612a6f57612a6e611fc8565b5b6000612a7d8482850161201b565b91505092915050565b7f455243313135353a2061646472657373207a65726f206973206e6f742061207660008201527f616c6964206f776e657200000000000000000000000000000000000000000000602082015250565b6000612ae2602a83612196565b9150612aed82612a86565b604082019050919050565b60006020820190508181036000830152612b1181612ad5565b9050919050565b7f4e487b7100000000000000000000000000000000000000000000000000000000600052602260045260246000fd5b60006002820490506001821680612b5f57607f821691505b602082108103612b7257612b71612b18565b5b50919050565b600081905092915050565b60008190508160005260206000209050919050565b60008154612ba581612b47565b612baf8186612b78565b94506001821660008114612bca5760018114612bdf57612c12565b60ff1983168652811515820286019350612c12565b612be885612b83565b60005b83811015612c0a57815481890152600182019150602081019050612beb565b838801955050505b50505092915050565b6000612c268261218b565b612c308185612b78565b9350612c408185602086016121a7565b80840191505092915050565b6000612c588285612b98565b9150612c648284612c1b565b91508190509392505050565b7f455243313135353a2063616c6c6572206973206e6f7420746f6b656e206f776e60008201527f6572206f7220617070726f766564000000000000000000000000000000000000602082015250565b6000612ccc602e83612196565b9150612cd782612c70565b604082019050919050565b60006020820190508181036000830152612cfb81612cbf565b9050919050565b7f63616c6c6572206973206e6f742074686520746f6b656e206f776e6572000000600082015250565b6000612d38601d83612196565b9150612d4382612d02565b602082019050919050565b60006020820190508181036000830152612d6781612d2b565b9050919050565b7f455243313135353a206163636f756e747320616e6420696473206c656e67746860008201527f206d69736d617463680000000000000000000000000000000000000000000000602082015250565b6000612dca602983612196565b9150612dd582612d6e565b604082019050919050565b60006020820190508181036000830152612df981612dbd565b9050919050565b7f4e487b7100000000000000000000000000000000000000000000000000000000600052603260045260246000fd5b7f4e487b7100000000000000000000000000000000000000000000000000000000600052601160045260246000fd5b6000612e6982612030565b91507fffffffffffffffffffffffffffffffffffffffffffffffffffffffffffffffff8203612e9b57612e9a612e2f565b5b600182019050919050565b7f6f6e6c7920746865204d61726b6574706c6163652063616e2063616c6c20746860008201527f6973000000000000000000000000000000000000000000000000000000000000602082015250565b6000612f02602283612196565b9150612f0d82612ea6565b604082019050919050565b60006020820190508181036000830152612f3181612ef5565b9050919050565b7f4f776e61626c653a206e6577206f776e657220697320746865207a65726f206160008201527f6464726573730000000000000000000000000000000000000000000000000000602082015250565b6000612f94602683612196565b9150612f9f82612f38565b604082019050919050565b60006020820190508181036000830152612fc381612f87565b9050919050565b7f455243313135353a2069647320616e6420616d6f756e7473206c656e6774682060008201527f6d69736d61746368000000000000000000000000000000000000000000000000602082015250565b6000613026602883612196565b915061303182612fca565b604082019050919050565b6000602082019050818103600083015261305581613019565b9050919050565b7f455243313135353a207472616e7366657220746f20746865207a65726f20616460008201527f6472657373000000000000000000000000000000000000000000000000000000602082015250565b60006130b8602583612196565b91506130c38261305c565b604082019050919050565b600060208201905081810360008301526130e7816130ab565b9050919050565b7f455243313135353a20696e73756666696369656e742062616c616e636520666f60008201527f72207472616e7366657200000000000000000000000000000000000000000000602082015250565b600061314a602a83612196565b9150613155826130ee565b604082019050919050565b600060208201905081810360008301526131798161313d565b9050919050565b600061318b82612030565b915061319683612030565b92508282019050808211156131ae576131ad612e2f565b5b92915050565b600060408201905081810360008301526131ce818561275c565b905081810360208301526131e2818461275c565b90509392505050565b7f455243313135353a206275726e2066726f6d20746865207a65726f206164647260008201527f6573730000000000000000000000000000000000000000000000000000000000602082015250565b6000613247602383612196565b9150613252826131eb565b604082019050919050565b600060208201905081810360008301526132768161323a565b9050919050565b7f455243313135353a206275726e20616d6f756e7420657863656564732062616c60008201527f616e636500000000000000000000000000000000000000000000000000000000602082015250565b60006132d9602483612196565b91506132e48261327d565b604082019050919050565b60006020820190508181036000830152613308816132cc565b9050919050565b7f4f776e61626c653a2063616c6c6572206973206e6f7420746865206f776e6572600082015250565b6000613345602083612196565b91506133508261330f565b602082019050919050565b6000602082019050818103600083015261337481613338565b9050919050565b7f455243313135353a206d696e7420746f20746865207a65726f2061646472657360008201527f7300000000000000000000000000000000000000000000000000000000000000602082015250565b60006133d7602183612196565b91506133e28261337b565b604082019050919050565b60006020820190508181036000830152613406816133ca565b9050919050565b600060408201905061342260008301856120a6565b61342f60208301846120a6565b9392505050565b60006020601f8301049050919050565b600082821b905092915050565b6000600883026134837fffffffffffffffffffffffffffffffffffffffffffffffffffffffffffffffff82613446565b61348d8683613446565b95508019841693508086168417925050509392505050565b6000819050919050565b60006134ca6134c56134c084612030565b6134a5565b612030565b9050919050565b6000819050919050565b6134e4836134af565b6134f86134f0826134d1565b848454613453565b825550505050565b600090565b61350d613500565b6135188184846134db565b505050565b5b8181101561353c57613531600082613505565b60018101905061351e565b5050565b601f8211156135815761355281612b83565b61355b84613436565b8101602085101561356a578190505b61357e61357685613436565b83018261351d565b50505b505050565b600082821c905092915050565b60006135a460001984600802613586565b1980831691505092915050565b60006135bd8383613593565b9150826002028217905092915050565b6135d68261218b565b67ffffffffffffffff8111156135ef576135ee61226f565b5b6135f98254612b47565b613604828285613540565b600060209050601f8311600181146136375760008415613625578287015190505b61362f85826135b1565b865550613697565b601f19841661364586612b83565b60005b8281101561366d57848901518255600182019150602085019450602081019050613648565b8683101561368a5784890151613686601f891682613593565b8355505b6001600288020188555050505b505050505050565b7f455243313135353a2073657474696e6720617070726f76616c2073746174757360008201527f20666f722073656c660000000000000000000000000000000000000000000000602082015250565b60006136fb602983612196565b91506137068261369f565b604082019050919050565b6000602082019050818103600083015261372a816136ee565b9050919050565b7f7468697320697320756e2d7472616e7366657261626c6520746f6b656e000000600082015250565b6000613767601d83612196565b915061377282613731565b602082019050919050565b600060208201905081810360008301526137968161375a565b9050919050565b600081519050919050565b600082825260208201905092915050565b60006137c48261379d565b6137ce81856137a8565b93506137de8185602086016121a7565b6137e7816121d1565b840191505092915050565b600060a08201905061380760008301886128ec565b61381460208301876128ec565b8181036040830152613826818661275c565b9050818103606083015261383a818561275c565b9050818103608083015261384e81846137b9565b90509695505050505050565b600081519050613869816120fc565b92915050565b60006020828403121561388557613884611fc8565b5b60006138938482850161385a565b91505092915050565b60008160e01c9050919050565b600060033d11156138c85760046000803e6138c560005161389c565b90505b90565b600060443d10613958576138dd611fbe565b60043d036004823e80513d602482011167ffffffffffffffff82111715613905575050613958565b808201805167ffffffffffffffff8111156139235750505050613958565b80602083010160043d038501811115613940575050505050613958565b61394f8260200185018661229e565b82955050505050505b90565b7f455243313135353a207472616e7366657220746f206e6f6e2d4552433131353560008201527f526563656976657220696d706c656d656e746572000000000000000000000000602082015250565b60006139b7603483612196565b91506139c28261395b565b604082019050919050565b600060208201905081810360008301526139e6816139aa565b9050919050565b7f455243313135353a204552433131353552656365697665722072656a6563746560008201527f6420746f6b656e73000000000000000000000000000000000000000000000000602082015250565b6000613a49602883612196565b9150613a54826139ed565b604082019050919050565b60006020820190508181036000830152613a7881613a3c565b9050919050565b600060a082019050613a9460008301886128ec565b613aa160208301876128ec565b613aae60408301866120a6565b613abb60608301856120a6565b8181036080830152613acd81846137b9565b9050969550505050505056fea26469706673582212208964cefaea39330865c777fcefc3789609919554c1640c4adf7bca11ce5d114664736f6c63430008120033",
  "linkReferences": {},
  "deployedLinkReferences": {}
}